:02000002D0002C
:1040000000400D00244E0D00000006000C000501CC
:084010000401BD0B00000000DB
:04401800104C0D003B
:10401C0009480A49884208B505D0094A824202D0AB
:10402C00121A00F0ADFD0748074A0021121A00F0E1
:10403C00B5FD014808BD00BFF0E50320944D0D000F
:10404C0058E6032058E60320F0E7032070B5074E2E
:10405C00074C00F0E7FAA41BA4080025A54200D1E8
:10406C0070BD56F8043B98470135F7E76C4D0D00D1
:10407C00904D0D0000F019B808B500F017F8BDE828
:10408C00084000F091BA00F065B90078B0FA80F001
:10409C004009704701230370704710B5044600684F
:1040AC0008B100F057F9204610BD7047704700006A
:1040BC0038B50A4C0A4BA360002503202560A58067
:1040CC00A57100F0B3F80749074A204600F042FDFD
:1040DC0029460120BDE8384000F0B0B85CE603206A
:1040EC000000FFFFA7400D0058E6032008B5024B67
:1040FC001B689B68019308BD6802030008B5024B5E
:10410C001B68DB68019308BD6802030008B5024B0D
:10411C001B685B68019308BD1802030008B5024BCD
:10412C001B685B69019308BD1802030008B5024BBC
:10413C001B685B6C019308BD4802030008B5024B79
:10414C001B689B6C019308BD4802030008B5024B29
:10415C001B685B69019308BD6402030008B5024B40
:10416C001B681B68019308BD3C02030008B5024B99
:10417C001B68DB68019308BD3C02030008B5024BC9
:10418C001B681B69019308BD3C02030008B5024B78
:10419C001B685B69019308BD3C02030008B5024B28
:1041AC001B689B69019308BD3C02030008B5024BD8
:1041BC001B68DB69019308BD3C02030008B5024B88
:1041CC001B689B6A019308BD3C02030008B5024BB7
:1041DC001B681B68019308BD4C02030008B5024B19
:1041EC001B681B69019308BD4C02030008B5024B08
:1041FC001B685B69019308BD4C02030008B5024BB8
:10420C001B689B69019308BD4C02030008B5024B67
:10421C001B68DB69019308BD4C02030008B5024B17
:10422C001B681B6A019308BD4C02030008B5024BC6
:10423C001B685B68019308BD2002030008B5024BA4
:10424C001B68DB6A019308BD2002030008B5034B11
:10425C001B68D3F88830019308BD000020020300CE
:10426C0008B5034B1B68D3F89430019308BD0000CC
:10427C002002030008B5024B1B685B68019308BD64
:10428C004002030008B5024B1B689B68019308BDF4
:10429C004002030008B5024B1B68DB68019308BDA4
:1042AC004002030008B5024B1B681B69019308BD53
:1042BC004002030008B5024B1B685B69019308BD03
:1042CC004002030008B5024B1B689B69019308BDB3
:1042DC004002030008B5024B1B68DB69019308BD63
:1042EC004002030008B5024B1B681B6A019308BD12
:1042FC004002030008B5024B1B681B6B019308BD01
:10430C004002030008B5024B1B685B6B019308BDB0
:10431C004002030008B5024B1B681B6C019308BDDF
:10432C004002030008B5024B1B685B6C019308BD8F
:10433C004002030008B5024B1B68DB6B019308BD00
:10434C004402030008B5024B1B681B68019308BDAF
:10435C001C02030008B5024B1B685B68019308BD87
:10436C001C02030008B5024B1B685B6C019308BD73
:10437C001C020300002240681146FFF7B3BF002265
:10438C0040681146FFF7BEBF40680022FFF7B2BF7E
:10439C004068002281F00101FFF79CBF00234068B8
:1043AC001A461946FFF78EBF002340681A46194675
:1043BC00FFF780BF002240681146FFF773BF002251
:1043CC0040681146FFF75EBF406800220221FFF7EC
:1043DC0061BF002340681A46FFF74CBF024B032213
:1043EC005A60024A1A60704768E603202C4C0D0094
:1043FC0010B5094B094C022200201A60084B2060B2
:10440C00A080A071A360FFF711FF2046054A064962
:10441C00BDE8104000F09EBB7CE6032070E6032054
:10442C000000FFFF58E60320A7400D0010B504461E
:10443C00006808B1FFF782FE204610BD10B58368F6
:10444C00044613B1032201469847204610BD0000D4
:10445C0010B5064C002320462360FFF767FE20466C
:10446C00034A0449BDE8104000F074BB80E6032009
:10447C0058E6032039440D00F8B506460D468F1852
:10448C000024BD420CD0336815F8011B9B683046E4
:10449C009847031E01DB1C44F3E7002C08BF1C46A5
:1044AC002046F8BD13B50446084659B1019100F0F9
:1044BC00A1FB23680199DB680246204602B0BDE8E7
:1044CC001040184702B010BD03689B68184730B500
:1044DC008BB000238DF82430012A98BF0A2209AC36
:1044EC000D46B1FBF2F101FB125303F0FF03092B54
:1044FC0094BF30333733DBB2AA4204F8013DEFD915
:10450C002146FFF7CFFF0BB030BD002340681A46A1
:10451C001946FFF7CFBE0000014B024A1A607047E4
:10452C0084E60320604C0D00024B1A68024B1A60A3
:10453C00704700BFF0E5032088E6032010B5044661
:10454C00FFF77CFF204610BD0348044A04490023B2
:10455C00836000F0FFBA00BF8CE6032058E603200E
:10456C0049450D00014B1860704700BFF4E503206E
:10457C0008B50B4B43B100F057F903681B6998471A
:10458C00002801DDAFF30080064B43B100F0CAF9FF
:10459C0003681B699847002801DDAFF3008008BD54
:1045AC00000000000000000008B5FFF7E1FFFFF776
:1045BC00B5FD014B186008BDECE703200248034A27
:1045CC000349121A00F0DCBA00F4032004F40320AF
:1045DC00904D0D0007B5002300931A466FF077013C
:1045EC00FFF73EFE03B05DF804FB000007B54388FF
:1045FC000A2B08D0502B0BD1094B1B684BB103B0C5
:10460C005DF804EB1847FFF7E5FF03B05DF804FB1A
:10461C00002300931A466FF07701FFF721FEF4E7B1
:10462C00A0E6032038B5124C1248134D0021FFF7B9
:10463C0099FE2368AB42114B0CBF012200221A7069
:10464C0002D0FFF7BBFF2560FFF760FD044600F0CA
:10465C00ADFA0B4B13B12046AFF300800021084894
:10466C00FFF768FEBDE8384006480021FFF7EEBDB5
:10467C0000F4032071450D001E1C279A9CE60320B4
:10468C0000000000F9450D00704710B518210446D4
:10469C0000F065FA204610BDF0B5037D062B8DB0F9
:1046AC000E4600F104074FF0000412D000F108058B
:1046BC0015F8011D0A223046FFF709FFAF420444EA
:1046CC0019D0002CF4D02E213046FFF7FDFE044407
:1046DC00EEE72F236A4639460A208DF80040FFF793
:1046EC0035FD684600F086FA33680246DB68694699
:1046FC0030469847044620460DB0F0BD10B5054B2A
:10470C000446112240F8043B002100F047FA2046F1
:10471C0010BD00BF884C0D000346074A10B543F886
:10472C00042B01F1100251F8044B43F8044B914255
:10473C00F9D10A781A7010BD884C0D0010B59DF88F
:10474C00084044EA032343EA024242EA016104239B
:10475C004160037510BD000013B5054B0360CB78A9
:10476C0000938B784A780978FFF7E8FF02B010BD08
:10477C00884C0D0041747047704708B50021007CCF
:10478C00FFF73CFD40EAE07008BD08B50121007C54
:10479C00FFF734FD40EAE07008BD08B5007CFFF778
:1047AC0025FD20EAE07008BD08B5007CFFF716FD7A
:1047BC0020EAE07008BD13B50446007C0191FFF7B8
:1047CC0015FD0028019901DC607C20B1207CFFF7ED
:1047DC001DFD20EAE07002B010BD007CFFF71EBD8D
:1047EC0010B51421044600F0BAF9204610BD0000A3
:1047FC0010B54FF47A73044608460021C4E901133E
:10480C00044B23600123207463741146FFF7DEFC14
:10481C00204610BD9C4C0D0010B5142204460021FE
:10482C0000F0BCF9204610BD10B5104C88B003A8A0
:10483C00FFF7F2FF2178BFF35B8F11F0010111D16B
:10484C0020460191FFF721FC019958B103AA0848B1
:10485C00FFF7CEFF2046FFF71DFC064A0649044829
:10486C0000F078F9024808B010BD00BFA4E60320A0
:10487C00A8E6032058E6032085470D0070474174D5
:10488C00704708B5007CFFF799FC20EAE07008BD82
:10489C0008B5007CFFF772FC20EAE07008BD08B593
:1048AC00007CFFF77BFC40EAE07008BD08B5007C9B
:1048BC00FFF76CFC40EAE07008BD007CFFF776BCAB
:1048CC0037B5457C04462DB1207C03B0BDE83040A3
:1048DC00FFF74CBC007C0191FFF770FC002801999C
:1048EC00F2DC284603B030BD10B51421044600F0AC
:1048FC0036F9204610BD000010B54FF0000C0446F0
:10490C00084611464FF47A72C4E901C2044A226087
:10491C000122207462741A46FFF720FC204610BD59
:10492C00CC4C0D0013B50E4C2178BFF35B8F11F0FE
:10493C00010112D120460191FFF7A7FB019960B14B
:10494C00084A094B0948FFF7D7FF2046FFF7A2FB9F
:10495C00074A0849054800F0FDF8044802B010BDAC
:10496C00BCE60320C0E6032044E70320C8E703208D
:10497C0058E6032089480D00002240681146FFF7D5
:10498C0091BC002240681146FFF7ACBC0022406885
:10499C001146FFF7B7BC40680022FFF7ABBC40687C
:1049AC00002281F00101FFF795BC002340681A46F4
:1049BC001946FFF787BC002240681146FFF762BC1E
:1049CC00406800220221FFF765BC002340681A46AC
:1049DC00FFF750BC024B04225A60024A1A6070471F
:1049EC00DCE70320FC4C0D00002340681A46FFF75F
:1049FC0041BC406800220221FFF74CBC00224068F9
:104A0C001146FFF73FBC002240681146FFF74ABC35
:104A1C00002340681A461946FFF74CBC0023406837
:104A2C001A461946FFF74EBC40680021FFF772BCCE
:104A3C0040680021FFF776BC4068002281F001013C
:104A4C00FFF748BC40680022FFF754BC00224068C6
:104A5C001146FFF757BC002240681146FFF742BCD5
:104A6C002DE9F043002495B016460D460746FFF796
:104A7C0045FE214618220EA8009400F08FF8402322
:104A8C00CDE90C3421466B460CAA3046FFF736FBB9
:104A9C00044600284CD1024601216868FFF702FC4D
:104AAC000221804622466868FFF7FCFB009E814687
:104ABC002146002E3CD000293AD17368022B03D03A
:104ACC000A2B11D0F669F4E7B8F1000F0AD071691E
:104ADC0006A8043107ADFFF73FFE0FCD3C1D0FC4F8
:104AEC002B6823704146EDE7B9F1000F01D149461F
:104AFC00E8E77469102201A800F050F806238DF83D
:104B0C00143001AD04F108031834186859682A46AA
:104B1C0003C20833A3421546F7D101A906A807AD75
:104B2C00FFF7FAFD0FCD3C1D0FC42B682370DEE799
:104B3C000098FFF7DBFA384615B0BDE8F0830000AB
:104B4C00024B034A1A6000225A607047E4E70320C4
:104B5C00384D0D000B460146184600F003B8FFF720
:104B6C0092BA000010B5054C13462CB10A4601460A
:104B7C000220AFF3008010BD2046FCE700000000CF
:104B8C000A44914200F1FF3300D1704710B511F87F
:104B9C00014B03F8014F9142F9D110BD0244034679
:104BAC00934200D1704703F8011BF9E738B50D4B60
:104BBC001D68AB6B04467BB91820FFF7C3FB0A4A90
:104BCC000A4BA863C0E90023094B83600B23838144
:104BDC0001220023C0E90423AB6B00221C615A6143
:104BEC0038BD00BFF4E503200E33CDAB34126DE6B7
:104BFC00ECDE0500034613F8012B002AFBD1181A32
:104C0C00013870471D400D0059400D0081400D00CA
:104C1C0085400D00000000000000000000000000B6
:104C2C00DF430D00D5430D00CB430D00C1430D00F8
:104C3C00B5430D00A9430D00354A0D003D4A0D004A
:104C4C009D430D0095430D008B430D0081430D00DA
:104C5C006D4A0D006170700025592D256D2D256450
:104C6C005425483A254D3A2553257A0061736374CF
:104C7C00696D65000000000000000000A5460D00F5
:104C8C0095460D0097460D00000000000000000046
:104C9C0085470D00ED470D00C3470D0085440D0001
:104CAC00B5470D0087470D0097470D00E7470D00EE
:104CBC00A7470D0081470D00000000000000000018
:104CCC0089480D00F5480D00CD480D0085440D00B8
:104CDC009D480D00B9480D00AB480D00C7480D00AC
:104CEC008B480D008F480D000000000000000000F4
:104CFC00D7490D00CD490D00C3490D0085490D0064
:104D0C0017450D00B7490D00354A0D003D4A0D0001
:104D1C00AB490D00A3490D0099490D008F490D00B9
:104D2C006D4A0D000000000000000000F5490D0068
:104D3C00FF490D00094A0D00134A0D001D4A0D00D4
:104D4C00294A0D00354A0D003D4A0D00454A0D001B
:104D5C00514A0D00594A0D00634A0D006D4A0D0071
:104D6C00BD400D00E9430D00FD430D005D440D00F9
:104D7C0025450D0035450D0055450D00E1490D004B
:044D8C004D4B0D007E
:044D9000000000001F
:104D9400784C0D00F8E5032000000000000000003E
:104DA40000000000000000000000000000000000FF
:104DB40000000000000000000000000000000000EF
:104DC40000000000000000000000000000000000DF
:104DD40000000000000000000000000000000000CF
:104DE40000000000000000000000000000000000BF
:084DF4000000000000000000B7
:104DFC00FFFFFFFF00000102030405060708090A74
:104E0C000B0C0D0E0F101112131415161718191A6E
:084E1C001B1C1D1E1F202800B5
:044E24007856341276
:04000003D000401CCD
:00000001FF
